{
  "contractName": "PickleCoin",
  "abi": [
    {
      "inputs": [
        {
          "internalType": "string",
          "name": "_name",
          "type": "string"
        },
        {
          "internalType": "string",
          "name": "_symbol",
          "type": "string"
        }
      ],
      "stateMutability": "nonpayable",
      "type": "constructor"
    },
    {
      "anonymous": false,
      "inputs": [
        {
          "indexed": true,
          "internalType": "address",
          "name": "owner",
          "type": "address"
        },
        {
          "indexed": true,
          "internalType": "address",
          "name": "approved",
          "type": "address"
        },
        {
          "indexed": true,
          "internalType": "uint256",
          "name": "tokenId",
          "type": "uint256"
        }
      ],
      "name": "Approval",
      "type": "event"
    },
    {
      "anonymous": false,
      "inputs": [
        {
          "indexed": true,
          "internalType": "address",
          "name": "owner",
          "type": "address"
        },
        {
          "indexed": true,
          "internalType": "address",
          "name": "operator",
          "type": "address"
        },
        {
          "indexed": false,
          "internalType": "bool",
          "name": "approved",
          "type": "bool"
        }
      ],
      "name": "ApprovalForAll",
      "type": "event"
    },
    {
      "anonymous": false,
      "inputs": [
        {
          "indexed": true,
          "internalType": "address",
          "name": "owner",
          "type": "address"
        },
        {
          "indexed": false,
          "internalType": "uint256",
          "name": "id",
          "type": "uint256"
        },
        {
          "indexed": false,
          "internalType": "uint256",
          "name": "dna",
          "type": "uint256"
        }
      ],
      "name": "NewPickle",
      "type": "event"
    },
    {
      "anonymous": false,
      "inputs": [
        {
          "indexed": true,
          "internalType": "address",
          "name": "previousOwner",
          "type": "address"
        },
        {
          "indexed": true,
          "internalType": "address",
          "name": "newOwner",
          "type": "address"
        }
      ],
      "name": "OwnershipTransferred",
      "type": "event"
    },
    {
      "anonymous": false,
      "inputs": [
        {
          "indexed": true,
          "internalType": "address",
          "name": "from",
          "type": "address"
        },
        {
          "indexed": true,
          "internalType": "address",
          "name": "to",
          "type": "address"
        },
        {
          "indexed": true,
          "internalType": "uint256",
          "name": "tokenId",
          "type": "uint256"
        }
      ],
      "name": "Transfer",
      "type": "event"
    },
    {
      "inputs": [
        {
          "internalType": "address",
          "name": "to",
          "type": "address"
        },
        {
          "internalType": "uint256",
          "name": "tokenId",
          "type": "uint256"
        }
      ],
      "name": "approve",
      "outputs": [],
      "stateMutability": "nonpayable",
      "type": "function"
    },
    {
      "inputs": [
        {
          "internalType": "address",
          "name": "owner",
          "type": "address"
        }
      ],
      "name": "balanceOf",
      "outputs": [
        {
          "internalType": "uint256",
          "name": "",
          "type": "uint256"
        }
      ],
      "stateMutability": "view",
      "type": "function"
    },
    {
      "inputs": [
        {
          "internalType": "uint256",
          "name": "tokenId",
          "type": "uint256"
        }
      ],
      "name": "getApproved",
      "outputs": [
        {
          "internalType": "address",
          "name": "",
          "type": "address"
        }
      ],
      "stateMutability": "view",
      "type": "function"
    },
    {
      "inputs": [
        {
          "internalType": "address",
          "name": "owner",
          "type": "address"
        },
        {
          "internalType": "address",
          "name": "operator",
          "type": "address"
        }
      ],
      "name": "isApprovedForAll",
      "outputs": [
        {
          "internalType": "bool",
          "name": "",
          "type": "bool"
        }
      ],
      "stateMutability": "view",
      "type": "function"
    },
    {
      "inputs": [],
      "name": "name",
      "outputs": [
        {
          "internalType": "string",
          "name": "",
          "type": "string"
        }
      ],
      "stateMutability": "view",
      "type": "function"
    },
    {
      "inputs": [],
      "name": "owner",
      "outputs": [
        {
          "internalType": "address",
          "name": "",
          "type": "address"
        }
      ],
      "stateMutability": "view",
      "type": "function"
    },
    {
      "inputs": [
        {
          "internalType": "uint256",
          "name": "tokenId",
          "type": "uint256"
        }
      ],
      "name": "ownerOf",
      "outputs": [
        {
          "internalType": "address",
          "name": "",
          "type": "address"
        }
      ],
      "stateMutability": "view",
      "type": "function"
    },
    {
      "inputs": [
        {
          "internalType": "uint256",
          "name": "",
          "type": "uint256"
        }
      ],
      "name": "pickle",
      "outputs": [
        {
          "internalType": "string",
          "name": "name",
          "type": "string"
        },
        {
          "internalType": "uint256",
          "name": "id",
          "type": "uint256"
        },
        {
          "internalType": "uint256",
          "name": "dna",
          "type": "uint256"
        },
        {
          "internalType": "uint8",
          "name": "level",
          "type": "uint8"
        },
        {
          "internalType": "uint8",
          "name": "rarity",
          "type": "uint8"
        }
      ],
      "stateMutability": "view",
      "type": "function"
    },
    {
      "inputs": [],
      "name": "renounceOwnership",
      "outputs": [],
      "stateMutability": "nonpayable",
      "type": "function"
    },
    {
      "inputs": [
        {
          "internalType": "address",
          "name": "from",
          "type": "address"
        },
        {
          "internalType": "address",
          "name": "to",
          "type": "address"
        },
        {
          "internalType": "uint256",
          "name": "tokenId",
          "type": "uint256"
        }
      ],
      "name": "safeTransferFrom",
      "outputs": [],
      "stateMutability": "nonpayable",
      "type": "function"
    },
    {
      "inputs": [
        {
          "internalType": "address",
          "name": "from",
          "type": "address"
        },
        {
          "internalType": "address",
          "name": "to",
          "type": "address"
        },
        {
          "internalType": "uint256",
          "name": "tokenId",
          "type": "uint256"
        },
        {
          "internalType": "bytes",
          "name": "_data",
          "type": "bytes"
        }
      ],
      "name": "safeTransferFrom",
      "outputs": [],
      "stateMutability": "nonpayable",
      "type": "function"
    },
    {
      "inputs": [
        {
          "internalType": "address",
          "name": "operator",
          "type": "address"
        },
        {
          "internalType": "bool",
          "name": "approved",
          "type": "bool"
        }
      ],
      "name": "setApprovalForAll",
      "outputs": [],
      "stateMutability": "nonpayable",
      "type": "function"
    },
    {
      "inputs": [
        {
          "internalType": "bytes4",
          "name": "interfaceId",
          "type": "bytes4"
        }
      ],
      "name": "supportsInterface",
      "outputs": [
        {
          "internalType": "bool",
          "name": "",
          "type": "bool"
        }
      ],
      "stateMutability": "view",
      "type": "function"
    },
    {
      "inputs": [],
      "name": "symbol",
      "outputs": [
        {
          "internalType": "string",
          "name": "",
          "type": "string"
        }
      ],
      "stateMutability": "view",
      "type": "function"
    },
    {
      "inputs": [
        {
          "internalType": "uint256",
          "name": "tokenId",
          "type": "uint256"
        }
      ],
      "name": "tokenURI",
      "outputs": [
        {
          "internalType": "string",
          "name": "",
          "type": "string"
        }
      ],
      "stateMutability": "view",
      "type": "function"
    },
    {
      "inputs": [
        {
          "internalType": "address",
          "name": "from",
          "type": "address"
        },
        {
          "internalType": "address",
          "name": "to",
          "type": "address"
        },
        {
          "internalType": "uint256",
          "name": "tokenId",
          "type": "uint256"
        }
      ],
      "name": "transferFrom",
      "outputs": [],
      "stateMutability": "nonpayable",
      "type": "function"
    },
    {
      "inputs": [
        {
          "internalType": "address",
          "name": "newOwner",
          "type": "address"
        }
      ],
      "name": "transferOwnership",
      "outputs": [],
      "stateMutability": "nonpayable",
      "type": "function"
    },
    {
      "inputs": [
        {
          "internalType": "uint256",
          "name": "_fee",
          "type": "uint256"
        }
      ],
      "name": "updateFee",
      "outputs": [],
      "stateMutability": "nonpayable",
      "type": "function"
    },
    {
      "inputs": [],
      "name": "withdraw",
      "outputs": [],
      "stateMutability": "payable",
      "type": "function"
    },
    {
      "inputs": [
        {
          "internalType": "string",
          "name": "_name",
          "type": "string"
        }
      ],
      "name": "createRandomPickle",
      "outputs": [],
      "stateMutability": "payable",
      "type": "function"
    },
    {
      "inputs": [],
      "name": "getPickle",
      "outputs": [
        {
          "components": [
            {
              "internalType": "string",
              "name": "name",
              "type": "string"
            },
            {
              "internalType": "uint256",
              "name": "id",
              "type": "uint256"
            },
            {
              "internalType": "uint256",
              "name": "dna",
              "type": "uint256"
            },
            {
              "internalType": "uint8",
              "name": "level",
              "type": "uint8"
            },
            {
              "internalType": "uint8",
              "name": "rarity",
              "type": "uint8"
            }
          ],
          "internalType": "struct PickleCoin.Pickle[]",
          "name": "",
          "type": "tuple[]"
        }
      ],
      "stateMutability": "view",
      "type": "function"
    }
  ],
  "bytecode": "0x6080604052670de0b6b3a76400006008553480156200001d57600080fd5b50604051620020893803806200208983398101604081905262000040916200025d565b81518290829062000059906000906020850190620000ea565b5080516200006f906001906020840190620000ea565b5050506200008c620000866200009460201b60201c565b62000098565b505062000304565b3390565b600680546001600160a01b038381166001600160a01b0319831681179093556040519116919082907f8be0079c531659141344cd1fd0a4f28419497f9722a3daafe3b4186f6b6457e090600090a35050565b828054620000f890620002c7565b90600052602060002090601f0160209004810192826200011c576000855562000167565b82601f106200013757805160ff191683800117855562000167565b8280016001018555821562000167579182015b82811115620001675782518255916020019190600101906200014a565b506200017592915062000179565b5090565b5b808211156200017557600081556001016200017a565b634e487b7160e01b600052604160045260246000fd5b600082601f830112620001b857600080fd5b81516001600160401b0380821115620001d557620001d562000190565b604051601f8301601f19908116603f0116810190828211818310171562000200576200020062000190565b816040528381526020925086838588010111156200021d57600080fd5b600091505b8382101562000241578582018301518183018401529082019062000222565b83821115620002535760008385830101525b9695505050505050565b600080604083850312156200027157600080fd5b82516001600160401b03808211156200028957600080fd5b6200029786838701620001a6565b93506020850151915080821115620002ae57600080fd5b50620002bd85828601620001a6565b9150509250929050565b600181811c90821680620002dc57607f821691505b60208210811415620002fe57634e487b7160e01b600052602260045260246000fd5b50919050565b611d7580620003146000396000f3fe60806040526004361061012a5760003560e01c80638da5cb5b116100ab578063b88d4fde1161006f578063b88d4fde14610320578063c87b56dd14610340578063ceee9bce14610360578063e985e9c514610373578063ef77b9bc146103bc578063f2fde38b146103ed57600080fd5b80638da5cb5b1461028b5780639012c4a8146102a957806395d89b41146102c9578063a0d7554c146102de578063a22cb4651461030057600080fd5b80633ccfd60b116100f25780633ccfd60b1461020057806342842e0e146102085780636352211e1461022857806370a0823114610248578063715018a61461027657600080fd5b806301ffc9a71461012f57806306fdde0314610164578063081812fc14610186578063095ea7b3146101be57806323b872dd146101e0575b600080fd5b34801561013b57600080fd5b5061014f61014a366004611719565b61040d565b60405190151581526020015b60405180910390f35b34801561017057600080fd5b5061017961045f565b60405161015b919061178e565b34801561019257600080fd5b506101a66101a13660046117a1565b6104f1565b6040516001600160a01b03909116815260200161015b565b3480156101ca57600080fd5b506101de6101d93660046117d6565b61058b565b005b3480156101ec57600080fd5b506101de6101fb366004611800565b6106a1565b6101de6106d2565b34801561021457600080fd5b506101de610223366004611800565b61074c565b34801561023457600080fd5b506101a66102433660046117a1565b610767565b34801561025457600080fd5b5061026861026336600461183c565b6107de565b60405190815260200161015b565b34801561028257600080fd5b506101de610865565b34801561029757600080fd5b506006546001600160a01b03166101a6565b3480156102b557600080fd5b506101de6102c43660046117a1565b61089b565b3480156102d557600080fd5b506101796108ca565b3480156102ea57600080fd5b506102f36108d9565b60405161015b9190611857565b34801561030c57600080fd5b506101de61031b3660046118f5565b6109ff565b34801561032c57600080fd5b506101de61033b3660046119bd565b610a0a565b34801561034c57600080fd5b5061017961035b3660046117a1565b610a42565b6101de61036e366004611a39565b610b2a565b34801561037f57600080fd5b5061014f61038e366004611a82565b6001600160a01b03918216600090815260056020908152604080832093909416825291909152205460ff1690565b3480156103c857600080fd5b506103dc6103d73660046117a1565b610b80565b60405161015b959493929190611ab5565b3480156103f957600080fd5b506101de61040836600461183c565b610c56565b60006001600160e01b031982166380ac58cd60e01b148061043e57506001600160e01b03198216635b5e139f60e01b145b8061045957506301ffc9a760e01b6001600160e01b03198316145b92915050565b60606000805461046e90611aef565b80601f016020809104026020016040519081016040528092919081815260200182805461049a90611aef565b80156104e75780601f106104bc576101008083540402835291602001916104e7565b820191906000526020600020905b8154815290600101906020018083116104ca57829003601f168201915b5050505050905090565b6000818152600260205260408120546001600160a01b031661056f5760405162461bcd60e51b815260206004820152602c60248201527f4552433732313a20617070726f76656420717565727920666f72206e6f6e657860448201526b34b9ba32b73a103a37b5b2b760a11b60648201526084015b60405180910390fd5b506000908152600460205260409020546001600160a01b031690565b600061059682610767565b9050806001600160a01b0316836001600160a01b031614156106045760405162461bcd60e51b815260206004820152602160248201527f4552433732313a20617070726f76616c20746f2063757272656e74206f776e656044820152603960f91b6064820152608401610566565b336001600160a01b03821614806106205750610620813361038e565b6106925760405162461bcd60e51b815260206004820152603860248201527f4552433732313a20617070726f76652063616c6c6572206973206e6f74206f7760448201527f6e6572206e6f7220617070726f76656420666f7220616c6c00000000000000006064820152608401610566565b61069c8383610cee565b505050565b6106ab3382610d5c565b6106c75760405162461bcd60e51b815260040161056690611b2a565b61069c838383610e53565b6006546001600160a01b031633146106fc5760405162461bcd60e51b815260040161056690611b7b565b60006107106006546001600160a01b031690565b6040519091506001600160a01b038216904780156108fc02916000818181858888f19350505050158015610748573d6000803e3d6000fd5b5050565b61069c83838360405180602001604052806000815250610a0a565b6000818152600260205260408120546001600160a01b0316806104595760405162461bcd60e51b815260206004820152602960248201527f4552433732313a206f776e657220717565727920666f72206e6f6e657869737460448201526832b73a103a37b5b2b760b91b6064820152608401610566565b60006001600160a01b0382166108495760405162461bcd60e51b815260206004820152602a60248201527f4552433732313a2062616c616e636520717565727920666f7220746865207a65604482015269726f206164647265737360b01b6064820152608401610566565b506001600160a01b031660009081526003602052604090205490565b6006546001600160a01b0316331461088f5760405162461bcd60e51b815260040161056690611b7b565b6108996000610ff3565b565b6006546001600160a01b031633146108c55760405162461bcd60e51b815260040161056690611b7b565b600855565b60606001805461046e90611aef565b60606009805480602002602001604051908101604052809291908181526020016000905b828210156109f657838290600052602060002090600402016040518060a001604052908160008201805461093090611aef565b80601f016020809104026020016040519081016040528092919081815260200182805461095c90611aef565b80156109a95780601f1061097e576101008083540402835291602001916109a9565b820191906000526020600020905b81548152906001019060200180831161098c57829003601f168201915b50505091835250506001828101546020808401919091526002840154604084015260039093015460ff808216606085015261010090910416608090920191909152918352920191016108fd565b50505050905090565b610748338383611045565b610a143383610d5c565b610a305760405162461bcd60e51b815260040161056690611b2a565b610a3c84848484611114565b50505050565b6000818152600260205260409020546060906001600160a01b0316610ac15760405162461bcd60e51b815260206004820152602f60248201527f4552433732314d657461646174613a2055524920717565727920666f72206e6f60448201526e3732bc34b9ba32b73a103a37b5b2b760891b6064820152608401610566565b6000610ad860408051602081019091526000815290565b90506000815111610af85760405180602001604052806000815250610b23565b80610b0284611147565b604051602001610b13929190611bb0565b6040516020818303038152906040525b9392505050565b6008543414610b745760405162461bcd60e51b8152602060048201526016602482015275151a1948199959481a5cc81b9bdd0818dbdc9c9958dd60521b6044820152606401610566565b610b7d81611245565b50565b60098181548110610b9057600080fd5b9060005260206000209060040201600091509050806000018054610bb390611aef565b80601f0160208091040260200160405190810160405280929190818152602001828054610bdf90611aef565b8015610c2c5780601f10610c0157610100808354040283529160200191610c2c565b820191906000526020600020905b815481529060010190602001808311610c0f57829003601f168201915b50505050600183015460028401546003909401549293909290915060ff8082169161010090041685565b6006546001600160a01b03163314610c805760405162461bcd60e51b815260040161056690611b7b565b6001600160a01b038116610ce55760405162461bcd60e51b815260206004820152602660248201527f4f776e61626c653a206e6577206f776e657220697320746865207a65726f206160448201526564647265737360d01b6064820152608401610566565b610b7d81610ff3565b600081815260046020526040902080546001600160a01b0319166001600160a01b0384169081179091558190610d2382610767565b6001600160a01b03167f8c5be1e5ebec7d5bd14f71427d1e84f3dd0314c0f7b2291e5b200ac8c7c3b92560405160405180910390a45050565b6000818152600260205260408120546001600160a01b0316610dd55760405162461bcd60e51b815260206004820152602c60248201527f4552433732313a206f70657261746f7220717565727920666f72206e6f6e657860448201526b34b9ba32b73a103a37b5b2b760a11b6064820152608401610566565b6000610de083610767565b9050806001600160a01b0316846001600160a01b03161480610e1b5750836001600160a01b0316610e10846104f1565b6001600160a01b0316145b80610e4b57506001600160a01b0380821660009081526005602090815260408083209388168352929052205460ff165b949350505050565b826001600160a01b0316610e6682610767565b6001600160a01b031614610ece5760405162461bcd60e51b815260206004820152602960248201527f4552433732313a207472616e73666572206f6620746f6b656e2074686174206960448201526839903737ba1037bbb760b91b6064820152608401610566565b6001600160a01b038216610f305760405162461bcd60e51b8152602060048201526024808201527f4552433732313a207472616e7366657220746f20746865207a65726f206164646044820152637265737360e01b6064820152608401610566565b610f3b600082610cee565b6001600160a01b0383166000908152600360205260408120805460019290610f64908490611bf5565b90915550506001600160a01b0382166000908152600360205260408120805460019290610f92908490611c0c565b909155505060008181526002602052604080822080546001600160a01b0319166001600160a01b0386811691821790925591518493918716917fddf252ad1be2c89b69c2b068fc378daa952ba7f163c4a11628f55a4df523b3ef91a4505050565b600680546001600160a01b038381166001600160a01b0319831681179093556040519116919082907f8be0079c531659141344cd1fd0a4f28419497f9722a3daafe3b4186f6b6457e090600090a35050565b816001600160a01b0316836001600160a01b031614156110a75760405162461bcd60e51b815260206004820152601960248201527f4552433732313a20617070726f766520746f2063616c6c6572000000000000006044820152606401610566565b6001600160a01b03838116600081815260056020908152604080832094871680845294825291829020805460ff191686151590811790915591519182527f17307eab39ab6107e8899845ad3d59bd9653f200f220920489ca2b5937696c31910160405180910390a3505050565b61111f848484610e53565b61112b8484848461138d565b610a3c5760405162461bcd60e51b815260040161056690611c24565b60608161116b5750506040805180820190915260018152600360fc1b602082015290565b8160005b8115611195578061117f81611c76565b915061118e9050600a83611ca7565b915061116f565b60008167ffffffffffffffff8111156111b0576111b0611931565b6040519080825280601f01601f1916602001820160405280156111da576020820181803683370190505b5090505b8415610e4b576111ef600183611bf5565b91506111fc600a86611cbb565b611207906030611c0c565b60f81b81838151811061121c5761121c611ccf565b60200101906001600160f81b031916908160001a90535061123e600a86611ca7565b94506111de565b6000611251606461148b565b90506000611265662386f26fc1000061148b565b6040805160a08101825285815260075460208083019190915291810183905260016060820181905260ff86166080830152600980549182018155600052815180519495509193849360049092027f6e1540171b6c0c960b71a7020d9f60077f6af931a8bbf590da0223dacf75c7af01926112e392849291019061166a565b50602082015160018201556040820151600282015560608201516003909101805460809093015160ff9081166101000261ffff199094169216919091179190911790556007546113349033906114e0565b600754604080519182526020820184905233917fa097a4b1cc7afc28be4466619b520d028a9c87fec5e3f6c42e877bfb1ea88fcc910160405180910390a26007805490600061138283611c76565b919050555050505050565b60006001600160a01b0384163b1561148057604051630a85bd0160e11b81526001600160a01b0385169063150b7a02906113d1903390899088908890600401611ce5565b6020604051808303816000875af192505050801561140c575060408051601f3d908101601f1916820190925261140991810190611d22565b60015b611466573d80801561143a576040519150601f19603f3d011682016040523d82523d6000602084013e61143f565b606091505b50805161145e5760405162461bcd60e51b815260040161056690611c24565b805181602001fd5b6001600160e01b031916630a85bd0160e11b149050610e4b565b506001949350505050565b60008042336040516020016114bc92919091825260601b6bffffffffffffffffffffffff1916602082015260340190565b60408051601f1981840301815291905280516020909101209050610b238382611cbb565b6107488282604051806020016040528060008152506114ff8383611528565b61150c600084848461138d565b61069c5760405162461bcd60e51b815260040161056690611c24565b6001600160a01b03821661157e5760405162461bcd60e51b815260206004820181905260248201527f4552433732313a206d696e7420746f20746865207a65726f20616464726573736044820152606401610566565b6000818152600260205260409020546001600160a01b0316156115e35760405162461bcd60e51b815260206004820152601c60248201527f4552433732313a20746f6b656e20616c7265616479206d696e746564000000006044820152606401610566565b6001600160a01b038216600090815260036020526040812080546001929061160c908490611c0c565b909155505060008181526002602052604080822080546001600160a01b0319166001600160a01b03861690811790915590518392907fddf252ad1be2c89b69c2b068fc378daa952ba7f163c4a11628f55a4df523b3ef908290a45050565b82805461167690611aef565b90600052602060002090601f01602090048101928261169857600085556116de565b82601f106116b157805160ff19168380011785556116de565b828001600101855582156116de579182015b828111156116de5782518255916020019190600101906116c3565b506116ea9291506116ee565b5090565b5b808211156116ea57600081556001016116ef565b6001600160e01b031981168114610b7d57600080fd5b60006020828403121561172b57600080fd5b8135610b2381611703565b60005b83811015611751578181015183820152602001611739565b83811115610a3c5750506000910152565b6000815180845261177a816020860160208601611736565b601f01601f19169290920160200192915050565b602081526000610b236020830184611762565b6000602082840312156117b357600080fd5b5035919050565b80356001600160a01b03811681146117d157600080fd5b919050565b600080604083850312156117e957600080fd5b6117f2836117ba565b946020939093013593505050565b60008060006060848603121561181557600080fd5b61181e846117ba565b925061182c602085016117ba565b9150604084013590509250925092565b60006020828403121561184e57600080fd5b610b23826117ba565b60006020808301818452808551808352604092508286019150828160051b87010184880160005b838110156118e757603f19898403018552815160a081518186526118a482870182611762565b838b0151878c0152898401518a88015260608085015160ff908116918901919091526080948501511693909601929092525050938601939086019060010161187e565b509098975050505050505050565b6000806040838503121561190857600080fd5b611911836117ba565b91506020830135801515811461192657600080fd5b809150509250929050565b634e487b7160e01b600052604160045260246000fd5b600067ffffffffffffffff8084111561196257611962611931565b604051601f8501601f19908116603f0116810190828211818310171561198a5761198a611931565b816040528093508581528686860111156119a357600080fd5b858560208301376000602087830101525050509392505050565b600080600080608085870312156119d357600080fd5b6119dc856117ba565b93506119ea602086016117ba565b925060408501359150606085013567ffffffffffffffff811115611a0d57600080fd5b8501601f81018713611a1e57600080fd5b611a2d87823560208401611947565b91505092959194509250565b600060208284031215611a4b57600080fd5b813567ffffffffffffffff811115611a6257600080fd5b8201601f81018413611a7357600080fd5b610e4b84823560208401611947565b60008060408385031215611a9557600080fd5b611a9e836117ba565b9150611aac602084016117ba565b90509250929050565b60a081526000611ac860a0830188611762565b602083019690965250604081019390935260ff918216606084015216608090910152919050565b600181811c90821680611b0357607f821691505b60208210811415611b2457634e487b7160e01b600052602260045260246000fd5b50919050565b60208082526031908201527f4552433732313a207472616e736665722063616c6c6572206973206e6f74206f6040820152701ddb995c881b9bdc88185c1c1c9bdd9959607a1b606082015260800190565b6020808252818101527f4f776e61626c653a2063616c6c6572206973206e6f7420746865206f776e6572604082015260600190565b60008351611bc2818460208801611736565b835190830190611bd6818360208801611736565b01949350505050565b634e487b7160e01b600052601160045260246000fd5b600082821015611c0757611c07611bdf565b500390565b60008219821115611c1f57611c1f611bdf565b500190565b60208082526032908201527f4552433732313a207472616e7366657220746f206e6f6e20455243373231526560408201527131b2b4bb32b91034b6b83632b6b2b73a32b960711b606082015260800190565b6000600019821415611c8a57611c8a611bdf565b5060010190565b634e487b7160e01b600052601260045260246000fd5b600082611cb657611cb6611c91565b500490565b600082611cca57611cca611c91565b500690565b634e487b7160e01b600052603260045260246000fd5b6001600160a01b0385811682528416602082015260408101839052608060608201819052600090611d1890830184611762565b9695505050505050565b600060208284031215611d3457600080fd5b8151610b238161170356fea2646970667358221220431205c957ee0b0697ec415d34336636714e3294dae304ccfc601fa18175b6fa64736f6c634300080a0033",
  "immutableReferences": {},
  "source": "// SPDX-License-Identifier: MIT\n\npragma solidity ^0.8.0;\n\nimport \"@openzeppelin/contracts/token/ERC721/ERC721.sol\";\nimport \"@openzeppelin/contracts/access/Ownable.sol\";\n\ncontract PickleCoin is ERC721, Ownable {\n     constructor(string memory _name, string memory _symbol)\n     ERC721(_name, _symbol)\n    {}\n\n    uint256 COUNTER;\n\n    uint256 fee = 1 ether;\n\n    struct Pickle {\n        string name;\n        uint256 id;\n        uint256 dna;\n        uint8 level;\n        uint8 rarity;\n    }\n\n    Pickle[] public pickle;\n\n    event NewPickle(address indexed owner, uint256 id, uint256 dna);\n\n    // Helpers\n    function _createRandomNum(uint256 _mod) internal view returns(uint256) {\n        uint256 randomNum = uint256(keccak256(abi.encodePacked(block.timestamp, msg.sender)));\n        return randomNum % _mod;\n    }\n\n    function updateFee(uint256 _fee) external onlyOwner() {\n        fee = _fee;\n    }\n\n    function withdraw() external payable onlyOwner() {\n        address payable _owner = payable(owner());\n        _owner.transfer(address(this).balance);\n    }\n\n    // Creation\n    function _createPickle(string memory _name) internal{\n        uint8 randRarity = uint8(_createRandomNum(100));\n        uint256 randDna = _createRandomNum(10**16);\n        Pickle memory newPickle = Pickle(_name, COUNTER, randDna, 1, randRarity);\n        pickle.push(newPickle);\n        _safeMint(msg.sender, COUNTER);\n        emit NewPickle(msg.sender, COUNTER, randDna);\n        COUNTER++;\n    }\n\n    function createRandomPickle(string memory _name) public payable {\n        require(msg.value == fee, \"The fee is not correct\");\n        _createPickle(_name);\n    }\n\n    // Getters\n    function getPickle() public view returns(Pickle[] memory){\n        return pickle;\n    }\n}\n",
  "sourcePath": "/Users/jetrocabauquiros/Documents/Github/pickle-family/game/nft_game/contracts/PickleCoin.sol",
  "compiler": {
    "name": "solc",
    "version": "0.8.10+commit.fc410830.Emscripten.clang"
  },
  "schemaVersion": "3.4.4",
  "updatedAt": "2022-01-12T23:12:27.493Z",
  "devdoc": {
    "kind": "dev",
    "methods": {
      "approve(address,uint256)": {
        "details": "See {IERC721-approve}."
      },
      "balanceOf(address)": {
        "details": "See {IERC721-balanceOf}."
      },
      "getApproved(uint256)": {
        "details": "See {IERC721-getApproved}."
      },
      "isApprovedForAll(address,address)": {
        "details": "See {IERC721-isApprovedForAll}."
      },
      "name()": {
        "details": "See {IERC721Metadata-name}."
      },
      "owner()": {
        "details": "Returns the address of the current owner."
      },
      "ownerOf(uint256)": {
        "details": "See {IERC721-ownerOf}."
      },
      "renounceOwnership()": {
        "details": "Leaves the contract without owner. It will not be possible to call `onlyOwner` functions anymore. Can only be called by the current owner. NOTE: Renouncing ownership will leave the contract without an owner, thereby removing any functionality that is only available to the owner."
      },
      "safeTransferFrom(address,address,uint256)": {
        "details": "See {IERC721-safeTransferFrom}."
      },
      "safeTransferFrom(address,address,uint256,bytes)": {
        "details": "See {IERC721-safeTransferFrom}."
      },
      "setApprovalForAll(address,bool)": {
        "details": "See {IERC721-setApprovalForAll}."
      },
      "supportsInterface(bytes4)": {
        "details": "See {IERC165-supportsInterface}."
      },
      "symbol()": {
        "details": "See {IERC721Metadata-symbol}."
      },
      "tokenURI(uint256)": {
        "details": "See {IERC721Metadata-tokenURI}."
      },
      "transferFrom(address,address,uint256)": {
        "details": "See {IERC721-transferFrom}."
      },
      "transferOwnership(address)": {
        "details": "Transfers ownership of the contract to a new account (`newOwner`). Can only be called by the current owner."
      }
    },
    "version": 1
  },
  "userdoc": {
    "kind": "user",
    "methods": {},
    "version": 1
  }
}